{
  "_format": "hh-sol-artifact-1",
  "contractName": "MulaMint",
  "sourceName": "contracts/MulaMint.sol",
  "abi": [
    {
      "inputs": [],
      "stateMutability": "nonpayable",
      "type": "constructor"
    },
    {
      "inputs": [
        {
          "internalType": "address",
          "name": "spender",
          "type": "address"
        },
        {
          "internalType": "uint256",
          "name": "allowance",
          "type": "uint256"
        },
        {
          "internalType": "uint256",
          "name": "needed",
          "type": "uint256"
        }
      ],
      "name": "ERC20InsufficientAllowance",
      "type": "error"
    },
    {
      "inputs": [
        {
          "internalType": "address",
          "name": "sender",
          "type": "address"
        },
        {
          "internalType": "uint256",
          "name": "balance",
          "type": "uint256"
        },
        {
          "internalType": "uint256",
          "name": "needed",
          "type": "uint256"
        }
      ],
      "name": "ERC20InsufficientBalance",
      "type": "error"
    },
    {
      "inputs": [
        {
          "internalType": "address",
          "name": "approver",
          "type": "address"
        }
      ],
      "name": "ERC20InvalidApprover",
      "type": "error"
    },
    {
      "inputs": [
        {
          "internalType": "address",
          "name": "receiver",
          "type": "address"
        }
      ],
      "name": "ERC20InvalidReceiver",
      "type": "error"
    },
    {
      "inputs": [
        {
          "internalType": "address",
          "name": "sender",
          "type": "address"
        }
      ],
      "name": "ERC20InvalidSender",
      "type": "error"
    },
    {
      "inputs": [
        {
          "internalType": "address",
          "name": "spender",
          "type": "address"
        }
      ],
      "name": "ERC20InvalidSpender",
      "type": "error"
    },
    {
      "inputs": [],
      "name": "ReentrancyGuardReentrantCall",
      "type": "error"
    },
    {
      "anonymous": false,
      "inputs": [
        {
          "indexed": true,
          "internalType": "address",
          "name": "owner",
          "type": "address"
        },
        {
          "indexed": true,
          "internalType": "address",
          "name": "spender",
          "type": "address"
        },
        {
          "indexed": false,
          "internalType": "uint256",
          "name": "value",
          "type": "uint256"
        }
      ],
      "name": "Approval",
      "type": "event"
    },
    {
      "anonymous": false,
      "inputs": [
        {
          "indexed": true,
          "internalType": "address",
          "name": "_investor",
          "type": "address"
        },
        {
          "indexed": false,
          "internalType": "uint256",
          "name": "_claimed",
          "type": "uint256"
        }
      ],
      "name": "ClaimedMulaMint",
      "type": "event"
    },
    {
      "anonymous": false,
      "inputs": [
        {
          "indexed": true,
          "internalType": "address",
          "name": "from",
          "type": "address"
        },
        {
          "indexed": true,
          "internalType": "address",
          "name": "to",
          "type": "address"
        },
        {
          "indexed": false,
          "internalType": "uint256",
          "name": "value",
          "type": "uint256"
        }
      ],
      "name": "Transfer",
      "type": "event"
    },
    {
      "inputs": [
        {
          "internalType": "address",
          "name": "owner",
          "type": "address"
        },
        {
          "internalType": "address",
          "name": "spender",
          "type": "address"
        }
      ],
      "name": "allowance",
      "outputs": [
        {
          "internalType": "uint256",
          "name": "",
          "type": "uint256"
        }
      ],
      "stateMutability": "view",
      "type": "function"
    },
    {
      "inputs": [
        {
          "internalType": "address",
          "name": "spender",
          "type": "address"
        },
        {
          "internalType": "uint256",
          "name": "value",
          "type": "uint256"
        }
      ],
      "name": "approve",
      "outputs": [
        {
          "internalType": "bool",
          "name": "",
          "type": "bool"
        }
      ],
      "stateMutability": "nonpayable",
      "type": "function"
    },
    {
      "inputs": [
        {
          "internalType": "address",
          "name": "account",
          "type": "address"
        }
      ],
      "name": "balanceOf",
      "outputs": [
        {
          "internalType": "uint256",
          "name": "",
          "type": "uint256"
        }
      ],
      "stateMutability": "view",
      "type": "function"
    },
    {
      "inputs": [
        {
          "internalType": "uint256",
          "name": "_bnbInvested",
          "type": "uint256"
        },
        {
          "internalType": "uint256",
          "name": "_usdtInvested",
          "type": "uint256"
        },
        {
          "internalType": "uint256",
          "name": "_amount",
          "type": "uint256"
        }
      ],
      "name": "claim",
      "outputs": [
        {
          "internalType": "bool",
          "name": "",
          "type": "bool"
        }
      ],
      "stateMutability": "payable",
      "type": "function"
    },
    {
      "inputs": [],
      "name": "decimals",
      "outputs": [
        {
          "internalType": "uint8",
          "name": "",
          "type": "uint8"
        }
      ],
      "stateMutability": "view",
      "type": "function"
    },
    {
      "inputs": [
        {
          "internalType": "address",
          "name": "_investor",
          "type": "address"
        }
      ],
      "name": "getClaimRecord",
      "outputs": [
        {
          "internalType": "address",
          "name": "investor",
          "type": "address"
        },
        {
          "internalType": "uint256",
          "name": "bnbInvested",
          "type": "uint256"
        },
        {
          "internalType": "uint256",
          "name": "usdtInvested",
          "type": "uint256"
        },
        {
          "internalType": "uint256",
          "name": "claimedAmount",
          "type": "uint256"
        }
      ],
      "stateMutability": "view",
      "type": "function"
    },
    {
      "inputs": [],
      "name": "name",
      "outputs": [
        {
          "internalType": "string",
          "name": "",
          "type": "string"
        }
      ],
      "stateMutability": "view",
      "type": "function"
    },
    {
      "inputs": [],
      "name": "symbol",
      "outputs": [
        {
          "internalType": "string",
          "name": "",
          "type": "string"
        }
      ],
      "stateMutability": "view",
      "type": "function"
    },
    {
      "inputs": [],
      "name": "totalSupply",
      "outputs": [
        {
          "internalType": "uint256",
          "name": "",
          "type": "uint256"
        }
      ],
      "stateMutability": "view",
      "type": "function"
    },
    {
      "inputs": [
        {
          "internalType": "address",
          "name": "to",
          "type": "address"
        },
        {
          "internalType": "uint256",
          "name": "value",
          "type": "uint256"
        }
      ],
      "name": "transfer",
      "outputs": [
        {
          "internalType": "bool",
          "name": "",
          "type": "bool"
        }
      ],
      "stateMutability": "nonpayable",
      "type": "function"
    },
    {
      "inputs": [
        {
          "internalType": "address",
          "name": "from",
          "type": "address"
        },
        {
          "internalType": "address",
          "name": "to",
          "type": "address"
        },
        {
          "internalType": "uint256",
          "name": "value",
          "type": "uint256"
        }
      ],
      "name": "transferFrom",
      "outputs": [
        {
          "internalType": "bool",
          "name": "",
          "type": "bool"
        }
      ],
      "stateMutability": "nonpayable",
      "type": "function"
    }
  ],
  "bytecode": "0x6080604052620000126012600a6200033c565b62000022906301312d0062000351565b6007553480156200003257600080fd5b5060405180604001604052806008815260200167135d5b18535a5b9d60c21b815250604051806040016040528060078152602001661355531352539560ca1b815250816003908162000085919062000410565b50600462000094828262000410565b5050600160055550600754620000ac903390620000b2565b620004f2565b6001600160a01b038216620000e25760405163ec442f0560e01b8152600060048201526024015b60405180910390fd5b620000f060008383620000f4565b5050565b6001600160a01b03831662000123578060026000828254620001179190620004dc565b90915550620001979050565b6001600160a01b03831660009081526020819052604090205481811015620001785760405163391434e360e21b81526001600160a01b03851660048201526024810182905260448101839052606401620000d9565b6001600160a01b03841660009081526020819052604090209082900390555b6001600160a01b038216620001b557600280548290039055620001d4565b6001600160a01b03821660009081526020819052604090208054820190555b816001600160a01b0316836001600160a01b03167fddf252ad1be2c89b69c2b068fc378daa952ba7f163c4a11628f55a4df523b3ef836040516200021a91815260200190565b60405180910390a3505050565b634e487b7160e01b600052601160045260246000fd5b600181815b808511156200027e57816000190482111562000262576200026262000227565b808516156200027057918102915b93841c939080029062000242565b509250929050565b600082620002975750600162000336565b81620002a65750600062000336565b8160018114620002bf5760028114620002ca57620002ea565b600191505062000336565b60ff841115620002de57620002de62000227565b50506001821b62000336565b5060208310610133831016604e8410600b84101617156200030f575081810a62000336565b6200031b83836200023d565b806000190482111562000332576200033262000227565b0290505b92915050565b60006200034a838362000286565b9392505050565b808202811582820484141762000336576200033662000227565b634e487b7160e01b600052604160045260246000fd5b600181811c908216806200039657607f821691505b602082108103620003b757634e487b7160e01b600052602260045260246000fd5b50919050565b601f8211156200040b57600081815260208120601f850160051c81016020861015620003e65750805b601f850160051c820191505b818110156200040757828155600101620003f2565b5050505b505050565b81516001600160401b038111156200042c576200042c6200036b565b62000444816200043d845462000381565b84620003bd565b602080601f8311600181146200047c5760008415620004635750858301515b600019600386901b1c1916600185901b17855562000407565b600085815260208120601f198616915b82811015620004ad578886015182559484019460019091019084016200048c565b5085821015620004cc5787850151600019600388901b60f8161c191681555b5050505050600190811b01905550565b8082018082111562000336576200033662000227565b610b2f80620005026000396000f3fe60806040526004361061009c5760003560e01c806370a082311161006457806370a082311461015757806395d89b411461018d578063a9059cbb146101a2578063c7826775146101c2578063dd62ed3e1461020c578063efa9a9be1461025257600080fd5b806306fdde03146100a1578063095ea7b3146100cc57806318160ddd146100fc57806323b872dd1461011b578063313ce5671461013b575b600080fd5b3480156100ad57600080fd5b506100b6610265565b6040516100c39190610954565b60405180910390f35b3480156100d857600080fd5b506100ec6100e73660046109be565b6102f7565b60405190151581526020016100c3565b34801561010857600080fd5b506002545b6040519081526020016100c3565b34801561012757600080fd5b506100ec6101363660046109e8565b610311565b34801561014757600080fd5b50604051601281526020016100c3565b34801561016357600080fd5b5061010d610172366004610a24565b6001600160a01b031660009081526020819052604090205490565b34801561019957600080fd5b506100b6610337565b3480156101ae57600080fd5b506100ec6101bd3660046109be565b610346565b3480156101ce57600080fd5b506101e26101dd366004610a24565b610354565b604080516001600160a01b03909516855260208501939093529183015260608201526080016100c3565b34801561021857600080fd5b5061010d610227366004610a3f565b6001600160a01b03918216600090815260016020908152604080832093909416825291909152205490565b6100ec610260366004610a72565b610449565b60606003805461027490610a9e565b80601f01602080910402602001604051908101604052809291908181526020018280546102a090610a9e565b80156102ed5780601f106102c2576101008083540402835291602001916102ed565b820191906000526020600020905b8154815290600101906020018083116102d057829003601f168201915b5050505050905090565b60003361030581858561063c565b60019150505b92915050565b60003361031f85828561064e565b61032a8585856106cc565b60019150505b9392505050565b60606004805461027490610a9e565b6000336103058185856106cc565b6001600160a01b03811660009081526006602090815260408083208151608081018352815481526001820154938101939093526002810154918301919091526003015460ff161515606082018190528291829182919061042d5760405162461bcd60e51b815260206004820152604360248201527f5468657265206973206e6f207265636f726420666f72207468697320696e766560448201527f73746f722e2020436865636b206164647265737320616e64207472792061676160648201526234b71760e91b608482015260a4015b60405180910390fd5b8051602082015160409092015196979096919550909350915050565b3360009081526006602052604081206003015460ff16156104eb5760405162461bcd60e51b815260206004820152605060248201527f596f75206861766520616c726561647920636c61696d656420796f7572204d7560448201527f6c614d696e742e20537065616b20746f2061646d696e20696620796f7520686160648201526f3b329030b73c9031b7b731b2b937399760811b608482015260a401610424565b6104f361072b565b604051600090339084908381818185875af1925050503d8060008114610535576040519150601f19603f3d011682016040523d82523d6000602084013e61053a565b606091505b50509050806105a05760405162461bcd60e51b815260206004820152602c60248201527f556e61626c6520746f20636f6d706c65746520636c61696d207472616e73666560448201526b3917102a393c9030b3b0b4b760a11b6064820152608401610424565b604080516080810182528681526020808201878152828401878152600160608501818152336000818152600687528890209651875593519186019190915590516002850155516003909301805460ff191693151593909317909255915185815290917f49591af7f0022b7ef3c3aad3e1826edb8349bfad45a1d5b34926675b0bbca906910160405180910390a260019150506103306001600555565b6106498383836001610755565b505050565b6001600160a01b0383811660009081526001602090815260408083209386168352929052205460001981146106c657818110156106b757604051637dc7a0d960e11b81526001600160a01b03841660048201526024810182905260448101839052606401610424565b6106c684848484036000610755565b50505050565b6001600160a01b0383166106f657604051634b637e8f60e11b815260006004820152602401610424565b6001600160a01b0382166107205760405163ec442f0560e01b815260006004820152602401610424565b61064983838361082a565b60026005540361074e57604051633ee5aeb560e01b815260040160405180910390fd5b6002600555565b6001600160a01b03841661077f5760405163e602df0560e01b815260006004820152602401610424565b6001600160a01b0383166107a957604051634a1406b160e11b815260006004820152602401610424565b6001600160a01b03808516600090815260016020908152604080832093871683529290522082905580156106c657826001600160a01b0316846001600160a01b03167f8c5be1e5ebec7d5bd14f71427d1e84f3dd0314c0f7b2291e5b200ac8c7c3b9258460405161081c91815260200190565b60405180910390a350505050565b6001600160a01b03831661085557806002600082825461084a9190610ad8565b909155506108c79050565b6001600160a01b038316600090815260208190526040902054818110156108a85760405163391434e360e21b81526001600160a01b03851660048201526024810182905260448101839052606401610424565b6001600160a01b03841660009081526020819052604090209082900390555b6001600160a01b0382166108e357600280548290039055610902565b6001600160a01b03821660009081526020819052604090208054820190555b816001600160a01b0316836001600160a01b03167fddf252ad1be2c89b69c2b068fc378daa952ba7f163c4a11628f55a4df523b3ef8360405161094791815260200190565b60405180910390a3505050565b600060208083528351808285015260005b8181101561098157858101830151858201604001528201610965565b506000604082860101526040601f19601f8301168501019250505092915050565b80356001600160a01b03811681146109b957600080fd5b919050565b600080604083850312156109d157600080fd5b6109da836109a2565b946020939093013593505050565b6000806000606084860312156109fd57600080fd5b610a06846109a2565b9250610a14602085016109a2565b9150604084013590509250925092565b600060208284031215610a3657600080fd5b610330826109a2565b60008060408385031215610a5257600080fd5b610a5b836109a2565b9150610a69602084016109a2565b90509250929050565b600080600060608486031215610a8757600080fd5b505081359360208301359350604090920135919050565b600181811c90821680610ab257607f821691505b602082108103610ad257634e487b7160e01b600052602260045260246000fd5b50919050565b8082018082111561030b57634e487b7160e01b600052601160045260246000fdfea264697066735822122042fa987e6f8398ef143dc03c5d02a96b0e2a7975518416b736c7427452e6f5c964736f6c63430008140033",
  "linkReferences": {},
  "deployedLinkReferences": {}
}